:020000040000FA
:0600000079EF01F012008F
:0A000600010010030000800000005C
:040010005700000095
:0C001400800E946E810EAF6E240EAC6E58
:10002000900EAB6E92908090800EE66E000EE66EA3
:1000300068D8E552E5520001E76B040EE75D19E26E
:1000400058D8E66E0001E751EA6AE20FE96E000E49
:10005000EA22E552E750EF6EE751EA6AE20FE96EF5
:10006000000EEA22EF50E66E37D8E5520001E72B8A
:10007000E4D7E66BD20EE66E000EE66EE20EE66E9A
:10008000000EE66E49EC01F0E552E552E552E5520C
:10009000000911E1990EE66E000EE66E32D8E552C7
:1000A000E5528080100EE66E270EE66E5FD8E552B0
:1000B000E552809008D0AC0EE66E000EE66E21D8B8
:1000C000E552E55280902C0EE66E010EE66E4ED89B
:1000D000E552E552B0D71200D9CFE6FFE1CFD9FF04
:1000E000FE0EDB50AD6EACA2FED7E552E7CFD9FFD6
:1000F00012009EAAFED7AECFE1F00001E15100D080
:100100001200D9CFE6FFE1CFD9FF020EE126DE6A69
:10011000DD6AFD0EDBCF00F0FE0EDBCF01F0DE501E
:100120000024E96EDD500120EA6EEF5015E0FD0E6F
:10013000DBCF00F0FE0EDBCF01F0DE500024E96ED5
:10014000DD500120EA6EEF50E66EC6DFE552DF2A91
:10015000010E01E3DB2ADDD7020EE15C02E2E16A77
:10016000E552E16EE552E7CFD9FF1200D9CFE6FFA5
:10017000E1CFD9FF040EE126DE6ADD6ADECF00F0B2
:10018000DDCF01F0FD0EDBCF02F0FE0EDBCF03F082
:1001900001500318E8AE02D0033404D00250005CD2
:1001A000035001581DE2020EDB6A030EDB6A020EE9
:1001B000DBCF00F0030EDBCF01F0D890015004E656
:1001C0002C0E005C010E015806E2020EDB2A030E23
:1001D00001E3DB2AECD7DF2A010E01E3DB2ACED7CD
:1001E000040EE15C02E2E16AE552E16EE552E7CF1E
:0401F000D9FF120021
:0C01F400060EF66E000EF76E000EF86EA0
:1002000000010900F550DC6F0900F550DD6F03E1D6
:10021000DC6701D03DD00900F550D76F0900F550DB
:10022000D86F0900F550D96F09000900F550E96E43
:100230000900F550EA6E090009000900F550DA6F6F
:100240000900F550DB6F09000900F6CFDEF0F7CFAB
:10025000DFF0F8CFE0F0D7C0F6FFD8C0F7FFD9C085
:10026000F8FF0001DA5302E1DB5307E00900F55023
:10027000EE6EDA07F8E2DB07F9D7DEC0F6FFDFC083
:10028000F7FFE0C0F8FF0001DC07000EDD5BBFD721
:0202900012005A
:0E029200D9CFE6FFDACFE6FFFA0EE3CFD9FFB1
:1002A000FB0EE3CFDAFFFC0EE3CFE9FFFD0EE3CF59
:1002B000EAFFDE50EF5C02E1EE66FBD7F36EFF0E65
:1002C000E3CFDAFFE552FF0EE3CFD9FFE552F3505B
:0202D00012001A
:0E02D200000EF36E00EE00F0060E01D81200D2
:1002E000EA6002D0EE6AFCD7F350E9601200EE6AD1
:0202F000FCD739
:0E02F20015EE00F025EE00F0F86A059CFAEC1F
:0E03000000F087EC01F00AEC00F0FBD71200D1
:02030E001200DB
:10031000456E74657220342D64696769742070615C
:100320007373776F72643A0D000D436F7272656379
:10033000742050617373776F72640D000D57726F84
:100340006E672050617373776F72640D00416C6C3F
:100350006F776564206F6E6C792031206F7220306A
:070360000D003132333400BF
:00000001FF
