:020000040000FA
:06000000E5EF00F0120024
:020006000000F8
:08000800F00E936E926AF19E66
:100010000F0EC16E806A08D80A0EE66EE66A29D80D
:10002000E552E552F8D71200819081828184818661
:1000300081BA0FD0808A640EE66EE66A1AD8E5525D
:10004000E552809A640EE66EE66A13D8E552E552F0
:1000500009D081B807D080840A0EE66EE66A09D816
:10006000E552E552818081928184818681A8809ABF
:100070001200D9CFE6FFE1CFD9FF040EE126DE6AF8
:10008000DD6ADECF00F0DDCF01F0FD0EDBCF02F048
:10009000FE0EDBCF03F001500318E8AE02D00334AC
:1000A00004D00250005C0350015826E2020EDB6AC5
:1000B000030EDB6A020EDBCF00F0030EDBCF01F094
:1000C000FD0EDBCF02F0FE0EDBCF03F00150031874
:1000D000E8AE02D0033404D00250005C0350015853
:1000E00006E2020EDB2A030E01E3DB2AE3D7DF2A56
:1000F000010E01E3DB2AC5D7040EE15C02E2E16AEE
:0C010000E552E16EE552E7CFD9FF120096
:04010C00060EF66E77
:10011000000EF76E000EF86E00010900F550856FB5
:100120000900F550866F03E1856701D03DD00900D5
:10013000F550806F0900F550816F0900F550826F0E
:1001400009000900F550E96E0900F550EA6E090052
:1001500009000900F550836F0900F550846F09000C
:100160000900F6CF87F0F7CF88F0F8CF89F080C08C
:10017000F6FF81C0F7FF82C0F8FF0001835302E160
:10018000845307E00900F550EE6E8307F8E2840718
:10019000F9D787C0F6FF88C0F7FF89C0F8FF0001D4
:0A01A0008507000E865BBFD7120032
:0601AA00000EF36E00EEF2
:1001B00000F0060E01D81200EA6002D0EE6AFCD709
:0A01C000F350E9601200EE6AFCD76C
:0601CA0015EE00F025EE29
:1001D00000F0F86A059C86EC00F0F3EC00F004EC0B
:0601E00000F0FBD7120045
:0201E600120005
:00000001FF
