:020000040000FA
:0600000018EF01F01200F0
:020006000000F8
:0800080094943BD800018A6BBF
:100010008B6B8B3504E28A51FF08030E8B550CE382
:100020008AC0E6FF8BC0E6FF34D8E552E5520001F6
:100030008A2B000E8B23EDD7020EE66EE66A55D8AA
:10004000E552E552E3D700018A69030E8B6F8B35C9
:1000500004E28A510008000E8B5512E28AC0E6FFC6
:100060008BC0E6FF16D8E552E552020EE66EE66A50
:100070003CD8E552E55200018A07000E8B5BE7D7BA
:1000800012007C0ECB6EBE6A0C0EBD6E070ECA6EE1
:100090001200D9CFE6FFE1CFD9FFFD0EDBCF00F094
:1000A000FE0EDBCF01F0D89001320032D890013241
:1000B00000320050BE6E030EE76EFD0EDBCF00F087
:1000C000FE0EDBCF01F0E7500016016A0050030B73
:1000D000F36EF346F346F346F346CF0EBD14F3102A
:1000E000BD6EE552E7CFD9FF1200D9CFE6FFE1CFD1
:1000F000D9FF040EE126DE6ADD6ADECF00F0DDCF37
:1001000001F0FD0EDBCF02F0FE0EDBCF03F001505D
:100110000318E8AE02D0033404D00250005C035050
:1001200001581DE2020EDB6A030EDB6A020EDBCF12
:1001300000F0030EDBCF01F0D890015004E6F40E7E
:10014000005C010E015806E2020EDB2A030E01E3F9
:10015000DB2AECD7DF2A010E01E3DB2ACED7040E1F
:10016000E15C02E2E16AE552E16EE552E7CFD9FFD8
:0201700012007B
:0E017200060EF66E000EF76E000EF86E00011F
:100180000900F550856F0900F550866F03E185671A
:1001900001D03DD00900F550806F0900F550816F06
:1001A0000900F550826F09000900F550E96E090059
:1001B000F550EA6E090009000900F550836F090047
:1001C000F550846F09000900F6CF87F0F7CF88F06B
:1001D000F8CF89F080C0F6FF81C0F7FF82C0F8FF3A
:1001E0000001835302E1845307E00900F550EE6EED
:1001F0008307F8E28407F9D787C0F6FF88C0F7FFC6
:1002000089C0F8FF00018507000E865BBFD712008A
:10021000000EF36E00EE00F0060E01D81200EA6048
:1002200002D0EE6AFCD7F350E9601200EE6AFCD708
:1002300015EE00F025EE00F0F86A059CB9EC00F030
:0C02400026EC01F004EC00F0FBD71200EB
:02024C0012009E
:00000001FF
