:03000000020800F3
:0C080000787FE4F6D8FD758117020847E8
:1009340010080102030A0405060B0708090C0E003F
:020944000F0D95
:10091400E4FDFCC3ED9FEC9E5015E4FBFA0BBB0019
:0F092400010ABA04F8BBFBF50DBD00010C80E41D
:0109330022A1
:10088C00E4FFD293D292D291D290EF7002C290BF79
:10089C000102C291BF0202C292BF0302C293209412
:1008AC000C3094FDEF25E025E02408802B20950CDE
:1008BC003095FDEF25E025E02409801C20960C30B6
:1008CC0096FDEF25E025E0240A800D20970E309749
:1008DC00FDEF25E025E0240BF8E6FF220FEF640482
:0408EC0070A07FFF7A
:0108F00022E5
:1008F100E4F5A012088CA907E9F460F7E4F5A07FFC
:1009010032FE12091489A07FE87E03120914E4F56E
:03091100A080E0E3
:10080C000208F1E493A3F8E493A34003F68001F209
:10081C0008DFF48029E493A3F85407240CC8C333ED
:10082C00C4540F4420C8834004F456800146F6DFBC
:10083C00E4800B0102040810204080900934E47E0F
:10084C00019360BCA3FF543F30E509541FFEE493B1
:10085C00A360010ECF54C025E060A840B8E493A378
:10086C00FAE493A3F8E493A3C8C582C8CAC583CAA3
:10087C00F0A3C8C582C8CAC583CADFE9DEE780BE5B
:0109460000B0
:00000001FF
