:020000040000FA
:060000001BEF01F01200ED
:0A0006000100540200008000000019
:0400100014000000D8
:0C001400D9CFE6FFE1CFD9FF040EE126B2
:10002000DE6ADD6ADECF00F0DDCF01F0FD0EDBCF52
:1000300002F0FE0EDBCF03F00250005C03500158CB
:100040001AE2020EDB6A030EDB6A020EDBCF00F05F
:10005000030EDBCF01F0640E005C000E015806E2D7
:10006000020EDB2A030E01E3DB2AEFD7DF2A010EA3
:1000700001E3DB2AD7D7040EE15C02E2E16AE55234
:10008000E16EE552E7CFD9FF1200936A9590959201
:10009000816A83808382839083923F0E816E2C0ECF
:1000A000E66E010EE66EB6DFE552E552839083827E
:1000B00000019E6B9F6B0A0E9E5D000E9F591CE215
:1000C0009EC0E9FF9FC0EAFF010ED890E936EA36EC
:1000D000E806FBE1800EE926000EEA22EF50816E71
:1000E0002C0EE66E010EE66E95DFE552E55200013C
:1000F0009E2B000E9F23DFD70A0E9E1901E19F5110
:1001000006E13F0E816E838083929E6B9F6B9E6B98
:100110009F6B0A0E9E5D000E9F591CE29EC0E9FF78
:100120009FC0EAFF010ED890E936EA36E806FBE107
:10013000800EE926000EEA22EF50816E2C0EE66E4C
:10014000010EE66E67DFE552E55200019E2B000EC0
:100150009F23DFD70A0E9E1901E19F510BE1839087
:1001600083923F0E816E2C0EE66E010EE66E52DF1C
:08017000E552E55290D71200A0
:08017800060EF66E000EF76E94
:10018000000EF86E00010900F550996F0900F55056
:100190009A6F03E1996701D03DD00900F550946F43
:1001A0000900F550956F0900F550966F0900090098
:1001B000F550E96E0900F550EA6E090009000900E2
:1001C000F550976F0900F550986F09000900F6CFB8
:1001D0009BF0F7CF9CF0F8CF9DF094C0F6FF95C050
:1001E000F7FF96C0F8FF0001975302E1985307E02C
:1001F0000900F550EE6E9707F8E29807F9D79BC013
:10020000F6FF9CC0F7FF9DC0F8FF00019907000EA4
:060210009A5BBFD712004B
:0A021600000EF36E00EE00F0060E7D
:1002200001D81200EA6002D0EE6AFCD7F350E96010
:060230001200EE6AFCD78B
:0A02360015EE00F025EE00F0F86A66
:10024000059CBCEC00F029EC01F045EC00F0FBD77C
:0202500012009A
:02025200120098
:0C0254003F0006005B004F0066006D00DC
:080260007D0007007F006F0024
:00000001FF
