:020000040000FA
:0600000029EF01F01200DF
:0A000600010070020000000100007C
:04001000810000006B
:0C001400800E946E810EAF6E240EAC6E58
:10002000900EAB6E5FD831080DE18280720EE66EE5
:10003000010EE66E37D8E552E5520D0EE66E25D874
:10004000E5521BD04FD830080DE18290790EE66E54
:10005000010EE66E27D8E552E5520D0EE66E15D874
:10006000E5520BD0640EE66E010EE66E1BD8E5522B
:10007000E5520D0EE66E09D8E5520A0EE66EE66A06
:1000800045D8E552E552CED71200D9CFE6FFE1CFF1
:10009000D9FFFE0EDB50AD6EACA2FED7E552E7CF26
:1000A000D9FF1200D9CFE6FFE1CFD9FFFD0EDBCF9C
:1000B000E9FFFE0EDBCFEAFFEF5010E0FD0EDBCFD5
:1000C000E9FFFE0EDBCFEAFFEF50E66EDEDFE55222
:1000D000FD0EDB2AFE0E01E3DB2AE8D7E552E7CF6F
:1000E000D9FF1200D9CFE6FFE1CFD9FFE6529EAA91
:1000F000FED7AE50DF6EDFCFE6FFC7DFE552DF5041
:1001000000D0E552E552E7CFD9FF1200D9CFE6FF84
:10011000E1CFD9FF040EE126DE6ADD6ADECF00F012
:10012000DDCF01F0D890015004E6640E005C000EB3
:10013000015826E2020EDB6A030EDB6A020EDBCFF9
:1001400000F0030EDBCF01F0FD0EDBCF02F0FE0E60
:10015000DBCF03F001500318E8AE02D0033404D023
:100160000250005C0350015806E2020EDB2A030E27
:1001700001E3DB2AE3D7DF2A010E01E3DB2ACED736
:10018000040EE15C02E2E16AE552E16EE552E7CF7E
:04019000D9FF120081
:0C019400060EF66E000EF76E000EF86E00
:1001A00001010900F550866F0900F550876F03E1E2
:1001B000866701D03DD00900F550816F0900F550E8
:1001C000826F0900F550836F09000900F550E96E50
:1001D0000900F550EA6E090009000900F550846F26
:1001E0000900F550856F09000900F6CF88F1F7CFB7
:1001F00089F1F8CF8AF181C1F6FF82C1F7FF83C18F
:10020000F8FF0101845302E1855307E00900F5502E
:10021000EE6E8407F8E28507F9D788C1F6FF89C139
:10022000F7FF8AC1F8FF01018607000E875BBFD781
:020230001200BA
:0E023200000EF36E00EE00F0060E01D8120072
:10024000EA6002D0EE6AFCD7F350E9601200EE6A71
:02025000FCD7D9
:0E02520015EE00F025EE00F0F86A059CCAECEF
:0E02600000F037EC01F00AEC00F0FBD71200C2
:02026E0012007C
:1002700055415254205472616E736D697373696F86
:100280006E20436F6D706C65746564000000000043
:10029000000000000000000000000000000000005E
:1002A000000000000000000000000000000000004E
:1002B000000000000000000000000000000000003E
:1002C000000000000000000000000000000000002E
:1002D0000000000057726F6E6720436F6D6D616E96
:1002E00064004C4544204F4E004C4544204F464648
:0102F000000D
:00000001FF
