:020000040000FA
:0600000041EF02F01200C6
:0A0006000100A004000080000000CB
:040010006400000088
:0C001400050EE66EE66A90D9E552E55252
:1000200036D8A8D8B1D8800EE66E000EE66E62D83B
:10003000E552E5522BD9FED71200D9CFE6FFE1CF2A
:10004000D9FFFE0EDB50836E829282908284050E71
:10005000E66EE66A73D9E552E5528294E552E7CF3F
:10006000D9FF1200D9CFE6FFE1CFD9FFFE0EDB505A
:10007000836E828282908284050EE66EE66A5ED985
:10008000E552E5528294E552E7CFD9FF12009490F1
:1000900094929494956A0F0EE66EE66A4FD9E552F3
:1000A000E552300EE66EC9DFE552010EE66EE66AF5
:1000B00045D9E552E552300EE66EBFDFE552010E3E
:1000C000E66EE66A3BD9E552E552380EE66EB5DFDC
:1000D000E552010EE66EB1DFE552060EE66EADDFCB
:1000E000E5520C0EE66EA9DFE552800EE66EA5DF46
:1000F000E5521200D9CFE6FFE1CFD9FFFD0EDBCFED
:10010000E9FFFE0EDBCFEAFFEF5010E0FD0EDBCF84
:10011000E9FFFE0EDBCFEAFFEF50E66EA3DFE5520C
:10012000FD0EDB2AFE0E01E3DB2AE8D7E552E7CF1E
:10013000D9FF1200C5809EA6FED79E961200C584E8
:100140009EA6FED79E961200D9CFE6FFE1CFD9FF3B
:10015000020EE1269EA6FED79E96C950DE6EDD6A8F
:10016000020EE15C02E2E16AE552E16EE552E7CFA0
:10017000D9FF120094869488280EC66EC00EC76EF2
:100180009D86310EC86E1200D5DF9E96D00EE66EAB
:100190002ED8E5529E96E66A2AD8E552100EE66EF3
:1001A00026D8E5529E96CBDFC5DF9E96D00EE66E32
:1001B0001ED8E5529E96010EE66E19D8E552100E35
:1001C000E66E15D8E5529E96BADFB4DF9E96D00E45
:1001D000E66E0DD8E5529E96020EE66E08D8E55200
:1001E000100EE66E04D8E5529E969FEF00F0D9CF30
:1001F000E6FFE1CFD9FFFE0EDB50C96E320EE66E90
:10020000E66A9CD8E552E5529EA6FED79E96E55238
:10021000E7CFD9FF12008EDFD10EC96E95DF000146
:10022000F36BF46B070EF4AF02D0D89003D0F35DFC
:10023000000EF45924E29E96C5869EA6FED79E9691
:10024000C9500001F56FF66BE40EF325E96E000E60
:10025000F421EA6EF5C0EFFF060EF4AF02D0D8909D
:1002600003D0F35D000EF45905E2C59AC5889EA639
:10027000FED79E960001F32B000EF423D3D7C58A38
:10028000C5889EA6FED79E969FEF00F053DFD00E46
:10029000E66EADDFE552E66AAADFE55250DF050EF5
:1002A000E66EE66A4BD8E552E552B5DF58EF01F04D
:1002B000E4C0F8F0E5C0F7F0E6C0F9F00001F83965
:1002C0000F0B0F0B300FF16F0F0EF815300FF26F91
:1002D0003A0EF06FF7390F0B0F0B300FEE6F0F0E5A
:1002E000F715300FEF6F3A0EED6FF9390F0B0F0B5B
:1002F000300FEB6F0F0EF915300FEC6FC00EE66E7E
:100300009CDEE5520001F56BF66B080EF6AF02D0ED
:10031000D89003D0F55D000EF6590FE2EB0EF525EF
:10032000E96E000EF621EA6EEF50E66E9BDEE552B6
:100330000001F52B000EF623E8D71200D9CFE6FF17
:10034000E1CFD9FF040EE126DE6ADD6ADECF00F0E0
:10035000DDCF01F0FD0EDBCF02F0FE0EDBCF03F0B0
:1003600001500318E8AE02D0033404D00250005C00
:10037000035001581DE2020EDB6A030EDB6A020E17
:10038000DBCF00F0030EDBCF01F0D890015004E684
:10039000E80E005C030E015806E2020EDB2A030E93
:1003A00001E3DB2AECD7DF2A010E01E3DB2ACED7FB
:1003B000040EE15C02E2E16AE552E16EE552E7CF4C
:0403C000D9FF12004F
:0C03C400060EF66E000EF76E000EF86ECE
:1003D00001010900F550056F0900F550066F03E1B2
:1003E000056701D03DD00900F550006F0900F550B8
:1003F000016F0900F550026F09000900F550E96E20
:100400000900F550EA6E090009000900F550036F74
:100410000900F550046F09000900F6CF07F1F7CF86
:1004200008F1F8CF09F100C1F6FF01C1F7FF02C1E1
:10043000F8FF0101035302E1045307E00900F550FE
:10044000EE6E0307F8E20407F9D707C1F6FF08C10B
:10045000F7FF09C1F8FF01010507000E065BBFD7D2
:02046000120088
:0E046200000EF36E00EE00F0060E01D8120040
:10047000EA6002D0EE6AFCD7F350E9601200EE6A3F
:02048000FCD7A7
:0E04820015EE00F025EE00F0F86A059CE2ECA5
:0E04900001F04FEC02F00AEC00F0FBD7120076
:02049E0012004A
:1004A000525443207573696E67204932430000003F
:1004B000000000000000000000000000000000003C
:1004C000000000000000000000000000000000002C
:1004D000000000000000000000000000000000001C
:1004E000000000000000000000000000000000000C
:1004F00000000000000000000000000000000000FC
:0405000000000000F7
:00000001FF
