:020000040800F2
:10000000008001201D0A000899090008A1090008C4
:10001000A9090008B1090008B9090008000000009A
:10002000000000000000000000000000C1090008FE
:10003000CF09000800000000DD090008EB090008F6
:100040006D0A00086D0A00086D0A00086D0A0008B4
:100050006D0A00086D0A00086D0A00086D0A0008A4
:100060006D0A00086D0A00086D0A00086D0A000894
:100070006D0A00086D0A00086D0A00086D0A000884
:100080006D0A00086D0A00086D0A000800000000F3
:100090000000000000000000000000006D0A0008E1
:1000A0006D0A00086D0A00086D0A00086D0A000854
:1000B0006D0A00086D0A00086D0A00086D0A000844
:1000C0006D0A00086D0A00086D0A00086D0A000834
:1000D0006D0A00086D0A00086D0A000800000000A3
:1000E0006D0A00086D0A00086D0A00080000000093
:1000F0000000000000000000000000006D0A000881
:10010000000000006D0A00086D0A00086D0A000872
:1001100000000000000000000000000000000000DF
:100120006D0A00086D0A00086D0A00086D0A0008D3
:100130006D0A000800000000000000000000000040
:100140000000000000000000000000006D0A000830
:100150006D0A00086D0A00086D0A00086D0A0008A3
:100160006D0A00086D0A0008000000000000000091
:10017000000000000000000000000000000000007F
:10018000000000006D0A00080000000000000000F0
:040190006D0A0008EC
:1001940010B5054C237833B9044B13B10448AFF3BD
:1001A40000800123237010BD0C000020000000001B
:1001B4005028000808B5034B1BB103490348AFF3AB
:1001C400008008BD00000000100000205028000836
:1001D40053B94AB9002908BF00281CBF4FF0FF31AA
:1001E4004FF0FF3000F088B9ADF1080C6DE904CE92
:1001F40000F006F8DDF804E0DDE9022304B07047FE
:100204002DE9F047089D8E4604468846002B4AD1C6
:100214008A42174662D9B2FA82F64EB1C6F1200379
:1002240001FA06F820FA03F3B74043EA0808B44099
:100234004FEA174E1FFA87FCB8FBFEF1230C0EFBA6
:10024400118843EA084301FB0CF29A4209D9FB18CE
:1002540001F1FF3080F0EA809A4240F2E7800239EF
:100264003B449A1AA3B2B2FBFEF00EFB102243EAFF
:10027400024300FB0CFC9C4509D9FB1800F1FF323A
:1002840080F0D6809C4540F2D3803B44023840EA5B
:100294000140A3EB0C0300211DB1F3400022C5E98A
:1002A4000032BDE8F0878B4205D90DB1C5E90001E4
:1002B40000210846F5E7B3FA83F1002946D17345D6
:1002C40002D3824200F20581841A6EEB03020120FC
:1002D4009046002DE5D0C5E90048E2E7002A00F089
:1002E4009080B2FA82F6002E40F0A4808A1A030CA1
:1002F4004FEA174E80B2BCB20121B2FBFEFC0EFBEA
:100304001C2243EA024304FB0CF29A4207D9FB186D
:100314000CF1FF3802D29A4200F2E080C4469B1AE4
:10032400B3FBFEF20EFB123340EA034302FB04F478
:100334009C4207D9FB1802F1FF3002D29C4200F222
:10034400CA8002461B1B42EA0C40A5E7C1F1200605
:100354008B4022FA06F71F430EFA01F420FA06F343
:100364002EFA06FE4FEA1749234300FA01F81FFA52
:1003740087FCBEFBF9F01C0C09FB10EE44EA0E44AA
:1003840000FB0CFEA64502FA01F209D93C1900F162
:10039400FF3A80F09C80A64540F2998002383C44A4
:1003A400A4EB0E041FFA83FEB4FBF9F309FB134418
:1003B4004EEA044403FB0CFCA44508D93C1903F1A0
:1003C400FF3E80F08280A4457FD9023B3C4443EA4F
:1003D4000040A4EB0C04A0FB02EC64457346E14628
:1003E40062D35FD05DB1B8EB030264EB090404FA95
:1003F40006F622FA01F31E43CC40C5E9006400214D
:100404004FE7B1FBF2FC010C41EA0E4180B240EA35
:1004140001423B4638463C46B846BE462026B1FB20
:10042400F7F1A2EB080241EA0C4166E7014618E73E
:1004340010462CE7C6F120022EFA02F3B740B14071
:1004440020FA02F24FEA174E0A43B3FBFEF8BCB29D
:100454000EFB1833110C41EA034108FB04F9B040C8
:1004640089454FEA104380B23ED9791808F1FF3C20
:1004740001D289451FD8A1EB0901B1FBFEF909FBA3
:1004840004F80EFB191192B242EA0142424529D204
:10049400BA1809F1FF31C4D24245C2D2A9F102010E
:1004A4003A44BEE7F0459DD2BEEB02036CEB070C69
:1004B4000138E14696E7A7EB09094944A8F1020C83
:1004C400B1FBFEF909FB04F8DBE773467FE750460E
:1004D40066E70846FDE63B44023A33E7ACF1020C1A
:1004E4003B441CE749469CE7A1EB0901C446B1FB28
:1004F400FEF909FB04F8C4E7704700BF80B582B079
:1005040000AF00F0B3FA00F02FF800F01BF900F090
:10051400EFF800F095F80021124801F08FFA00235B
:100524007B6009E00F4B1B687A685A63052000F072
:100534000FFB7B6801337B607B68B3F5806FF1DB75
:1005440040F2FF337B6009E0064B1B687A685A630C
:10055400052000F0FDFA7B68013B7B607B68002B83
:10056400F2DDDCE72800002080B594B000AF07F18D
:10057400200330220021184602F03CF907F10C0355
:1005840000221A605A609A60DA601A610023BB6024
:10059400294B1B6C284A43F080531364264B1B6C75
:1005A40003F08053BB60BB6800237B60234B1B6854
:1005B40023F44043214A43F4004313601F4B1B6858
:1005C40003F440437B607B6802233B620123FB62AC
:1005D40010233B630223BB630023FB6310233B64B0
:1005E4004FF4A8737B640423BB640723FB6407F103
:1005F4002003184600F03AFD0346002B01D000F01A
:10060400FBF80F23FB6002233B6100237B614FF463
:100614008053BB610023FB6107F10C0302211846E0
:1006240000F09CFF0346002B01D000F0E5F800BF6A
:100634005037BD4680BD00BF003802400070004006
:1006440080B58AB000AF07F1200300221A605A6017
:100654003B1D00221A605A609A60DA601A615A617E
:100664009A61224B4FF080421A60204B00225A605C
:100674001E4B00229A601D4B4FF0FF32DA601B4B79
:1006840000221A61194B00229A61184801F086F978
:100694000346002B01D000F0AFF800233B62002397
:1006A4007B6207F120031946104801F071FD0346EF
:1006B400002B01D000F0A0F860237B600023BB6016
:1006C4000023FB6000237B613B1D00221946074881
:1006D40001F064FA0346002B01D000F08DF80348C2
:1006E40000F0D8F800BF2837BD4680BD28000020A0
:1006F40080B500AF114B124A1A60104B4FF4E1322F
:100704005A600E4B00229A600C4B0022DA600B4BAD
:1007140000221A61094B0C225A61084B00229A618B
:10072400064B0022DA61054801F0A0FD0346002BC8
:1007340001D000F061F800BF80BD00BF7000002050
:100744000044004080B58AB000AF07F114030022D2
:100754001A605A609A60DA601A6100233B61244B84
:100764001B6B234A43F004031363214B1B6B03F0FD
:1007740004033B613B690023FB601D4B1B6B1C4A5C
:1007840043F0800313631A4B1B6B03F08003FB607D
:10079400FB680023BB60164B1B6B154A43F0010337
:1007A4001363134B1B6B03F00103BB60BB68002393
:1007B4007B600F4B1B6B0E4A43F0020313630C4B1D
:1007C4001B6B03F002037B607B684FF400537B6177
:1007D4004FF40413BB610023FB6107F114031946B2
:1007E400044800F0BFFA00BF2837BD4680BD00BFF3
:1007F400003802400008024080B400AF72B600BF67
:1008040000BFFDE780B483B000AF00237B60104BD2
:100814005B6C0F4A43F4804353640D4B5B6C03F4ED
:1008240080437B607B6800233B60094B1B6C084A58
:1008340043F080531364064B1B6C03F080533B60FE
:100844003B6800BF0C37BD465DF8047B704700BFB2
:100854000038024080B485B000AF78607B681B68C4
:10086400B3F1804F0DD10023FB60094B1B6C084A88
:1008740043F001031364064B1B6C03F00103FB609C
:10088400FB6800BF1437BD465DF8047B704700BFAA
:100894000038024080B588B000AF786007F10C03DF
:1008A40000221A605A609A60DA601A617B681B68D9
:1008B400B3F1804F1DD10023BB60104B1B6B0F4A5B
:1008C40043F0010313630D4B1B6B03F00103BB6087
:1008D400BB682023FB6002233B6100237B61002370
:1008E400BB610123FB6107F10C031946044800F0C6
:1008F40039FA00BF2037BD4680BD00BF0038024032
:100904000000024080B58AB000AF786007F114039C
:1009140000221A605A609A60DA601A617B681B6868
:10092400194A93422BD100233B61184B1B6C174A85
:1009340043F400331364154B1B6C03F400333B6125
:100944003B690023FB60114B1B6B104A43F001030E
:1009540013630E4B1B6B03F00103FB60FB680C235A
:100964007B610223BB610023FB6100233B620723FD
:100974007B6207F114031946054800F0F3F900BF40
:100984002837BD4680BD00BF004400400038024007
:100994000000024080B400AF00BFFDE780B400AFA8
:1009A40000BFFDE780B400AF00BFFDE780B400AF37
:1009B40000BFFDE780B400AF00BFFDE780B400AF27
:1009C40000BFBD465DF8047B704780B400AF00BF34
:1009D400BD465DF8047B704780B400AF00BFBD46E0
:1009E4005DF8047B704780B500AF00F091F800BF5C
:1009F40080BD000080B400AF064BD3F88830054AB0
:100A040043F47003C2F8883000BFBD465DF8047B30
:100A1400704700BF00ED00E0DFF834D0FFF7EAFFD5
:100A24000C480D490D4A002302E0D458C450043345
:100A3400C4188C42F9D30A4A0A4C002301E013601B
:100A44000432A242FBD301F0DDFEFFF757FD7047ED
:100A540000800120000000200C00002090280008E5
:100A64000C000020BC000020FEE7000080B500AFB1
:100A74000E4B1B680D4A43F4007313600B4B1B6849
:100A84000A4A43F480631360084B1B68074A43F423
:100A940080731360032000F031F9002000F008F89F
:100AA400FFF7B0FE0023184680BD00BF003C0240A3
:100AB40080B582B000AF7860124B1A68124B1B7875
:100AC40019464FF47A73B3FBF1F3B2FBF3F3184610
:100AD40000F03BF90346002B01D001230EE07B68B4
:100AE4000F2B0AD8002279684FF0FF3000F011F97B
:100AF400064A7B681360002300E001231846083788
:100B0400BD4680BD00000020080000200400002035
:100B140080B400AF064B1B781A46064B1B6813447F
:100B2400044A136000BFBD465DF8047B704700BFF4
:100B340008000020B800002080B400AF034B1B68FD
:100B44001846BD465DF8047B704700BFB80000201E
:100B540080B584B000AF7860FFF7EEFFB8607B68C3
:100B6400FB60FB68B3F1FF3F05D00A4B1B781A46C4
:100B7400FB681344FB6000BFFFF7DEFF0246BB685F
:100B8400D31AFA689A42F7D800BF00BF1037BD469F
:100B940080BD00BF0800002080B485B000AF78603D
:100BA4007B6803F00703FB600C4BDB68BB60BA682F
:100BB4004FF6FF031340BB60FB681A02BB68134384
:100BC40043F0BF6343F40033BB60044ABB68D360A3
:100BD40000BF1437BD465DF8047B704700ED00E0AC
:100BE40080B400AF044BDB681B0A03F0070318460C
:100BF400BD465DF8047B704700ED00E080B483B02F
:100C040000AF03463960FB7197F90730002B0ADB0C
:100C14003B68DAB20C4997F907301201D2B20B449F
:100C240083F800230AE03B68DAB20849FB7903F051
:100C34000F03043B1201D2B20B441A7600BF0C37E7
:100C4400BD465DF8047B704700E100E000ED00E084
:100C540080B489B000AFF860B9607A60FB6803F0D3
:100C64000703FB61FB69C3F10703042B28BF0423BB
:100C7400BB61FB690433062B02D9FB69033B00E02B
:100C840000237B614FF0FF32BB6902FA03F3DA43BE
:100C9400BB681A407B699A404FF0FF317B6901FAC7
:100CA40003F3D9437B680B40134318462437BD46EE
:100CB4005DF8047B7047000080B582B000AF7860B7
:100CC4007B68013BB3F1807F01D301230FE00A4A23
:100CD4007B68013B53600F214FF0FF30FFF78EFF1D
:100CE400054B00229A60044B07221A600023184621
:100CF4000837BD4680BD00BF10E000E080B582B07B
:100D040000AF78607868FFF747FF00BF0837BD463B
:100D140080BD80B586B000AF0346B9607A60FB73CE
:100D240000237B61FFF75CFF78617A68B9687869B2
:100D3400FFF78EFF024697F90F3011461846FFF76A
:100D44005DFF00BF1837BD4680BD80B582B000AFDF
:100D540078607868FFF7B0FF034618460837BD4649
:100D640080BD000080B489B000AF78603960002392
:100D74007B6100233B610023BB610023FB6159E1DC
:100D84000122FB6902FA03F37B613B681B687A6901
:100D940013403B613A697B699A4240F048813B6861
:100DA4005B6803F00303012B05D03B685B6803F029
:100DB4000303022B30D17B689B68BB61FB695B003A
:100DC400032202FA03F3DB43BA691340BB613B68B5
:100DD400DA68FB695B0002FA03F3BA691343BB6187
:100DE4007B68BA699A607B685B68BB610122FB69B6
:100DF40002FA03F3DB43BA691340BB613B685B68E7
:100E04001B0903F00102FB6902FA03F3BA691343F5
:100E1400BB617B68BA695A603B685B6803F0030393
:100E2400032B17D07B68DB68BB61FB695B00032283
:100E340002FA03F3DB43BA691340BB613B689A6867
:100E4400FB695B0002FA03F3BA691343BB617B6875
:100E5400BA69DA603B685B6803F00303022B23D1B1
:100E6400FB69DA087B68083253F82230BB61FB69FE
:100E740003F007039B000F2202FA03F3DB43BA6972
:100E84001340BB613B681A69FB6903F007039B00CD
:100E940002FA03F3BA691343BB61FB69DA087B689E
:100EA4000832B96943F822107B681B68BB61FB698F
:100EB4005B00032202FA03F3DB43BA691340BB610C
:100EC4003B685B6803F00302FB695B0002FA03F30F
:100ED400BA691343BB617B68BA691A603B685B6893
:100EE40003F44033002B00F0A2800023FB60574B37
:100EF4005B6C564A43F480435364544B5B6C03F479
:100F04008043FB60FB68524AFB699B08023352F83A
:100F14002330BB61FB6903F003039B000F2202FA39
:100F240003F3DB43BA691340BB617B68494A9342CC
:100F340019D07B68484A934213D07B68474A93424E
:100F44000DD07B68464A934207D07B68454A93425A
:100F540001D1042308E0072306E0032304E002236D
:100F640002E0012300E00023FA6902F00302920088
:100F74009340BA691343BB613549FB699B0802334B
:100F8400BA6941F82320384B9B68BB613B69DB435A
:100F9400BA691340BB613B685B6803F48013002BA0
:100FA40003D0BA693B691343BB612F4ABB699360A1
:100FB4002D4BDB68BB613B69DB43BA691340BB6102
:100FC4003B685B6803F40013002B03D0BA693B69E8
:100FD4001343BB61244ABB69D360234B5B68BB6189
:100FE4003B69DB43BA691340BB613B685B6803F44C
:100FF4000033002B03D0BA693B691343BB611A4A1F
:10100400BB695360184B1B68BB613B69DB43BA691E
:101014001340BB613B685B6803F48033002B03D04F
:10102400BA693B691343BB610F4ABB691360FB692F
:101034000133FB61FB690F2B7FF6A2AE00BF00BF3B
:101044002437BD465DF8047B704700BF003802407A
:101054000038014000000240000402400008024041
:10106400000C024000100240003C014080B586B0F4
:1010740000AF78607B68002B01D1012367E27B68B5
:101084001B6803F00103002B75D0884B9B6803F0A9
:101094000C03042B0CD0854B9B6803F00C03082B2A
:1010A40012D1824B5B6803F48003B3F5800F0BD13C
:1010B4007E4B1B6803F40033002B5BD07B685B68BA
:1010C400002B57D1012342E27B685B68B3F5803F74
:1010D40006D1764B1B68754A43F4803313601DE0D8
:1010E4007B685B68B3F5A02F0CD1704B1B686F4A0B
:1010F40043F4802313606D4B1B686C4A43F48033C4
:1011040013600BE0694B1B68684A23F48033136057
:10111400664B1B68654A23F4802313607B685B6815
:10112400002B13D0FFF708FD386108E0FFF704FD3A
:1011340002463B69D31A642B01D9032307E25B4BB4
:101144001B6803F40033002BF0D014E0FFF7F4FC29
:10115400386108E0FFF7F0FC02463B69D31A642BC0
:1011640001D90323F3E1514B1B6803F40033002B33
:10117400F0D100E000BF7B681B6803F00203002B82
:1011840063D04A4B9B6803F00C03002B0BD0474BF6
:101194009B6803F00C03082B1CD1444B5B6803F4DD
:1011A4008003002B16D1414B1B6803F00203002B74
:1011B40005D07B68DB68012B01D00123C7E13B4BE1
:1011C4001B6823F0F8027B681B69DB003749134373
:1011D4000B603AE07B68DB68002B20D0344B0122A3
:1011E4001A60FFF7A9FC386108E0FFF7A5FC024686
:1011F4003B69D31A022B01D90323A8E12B4B1B68AB
:1012040003F00203002BF0D0284B1B6823F0F802F4
:101214007B681B69DB00254913430B6015E0244BF5
:1012240000221A60FFF788FC386108E0FFF784FCAD
:1012340002463B69D31A022B01D9032387E11B4BD6
:101244001B6803F00203002BF0D17B681B6803F0DA
:101254000803002B36D07B685B69002B16D0154B36
:1012640001221A60FFF768FC386108E0FFF764FCAC
:1012740002463B69D31A022B01D9032367E10B4BC6
:101284005B6F03F00203002BF0D01BE0094B00223C
:101294001A60FFF751FC38610EE0FFF74DFC02467F
:1012A4003B69D31A022B07D9032350E100380240CB
:1012B40000004742800E4742884B5B6F03F00203F5
:1012C400002BEAD17B681B6803F00403002B00F0B9
:1012D40097800023FB75814B1B6C03F08053002B1C
:1012E4000FD10023BB607D4B1B6C7C4A43F08053C1
:1012F40013647A4B1B6C03F08053BB60BB680123FF
:10130400FB75774B1B6803F48073002B18D1744B67
:101314001B68734A43F480731360FFF70DFC386154
:1013240008E0FFF709FC02463B69D31A022B01D9F6
:1013340003230CE16A4B1B6803F48073002BF0D089
:101344007B689B68012B06D1644B1B6F634A43F097
:10135400010313671CE07B689B68052B0CD15F4B72
:101364001B6F5E4A43F0040313675C4B1B6F5B4ABD
:1013740043F0010313670BE0584B1B6F574A23F0EC
:1013840001031367554B1B6F544A23F0040313677F
:101394007B689B68002B15D0FFF7CEFB38610AE011
:1013A400FFF7CAFB02463B69D31A41F288329342E3
:1013B40001D90323CBE0494B1B6F03F00203002B3D
:1013C400EED014E0FFF7B8FB38610AE0FFF7B4FB96
:1013D40002463B69D31A41F28832934201D903236E
:1013E400B5E03E4B1B6F03F00203002BEED1FB7DF7
:1013F400012B05D1394B1B6C384A23F080531364FD
:101404007B689B69002B00F0A180344B9B6803F040
:101414000C03082B5CD07B689B69022B41D1314BB8
:1014240000221A60FFF788FB386108E0FFF784FBAD
:1014340002463B69D31A022B01D9032387E0274BC9
:101444001B6803F00073002BF0D17B68DA697B68BA
:101454001B6A1A437B685B6A9B011A437B689B6A1D
:101464005B08013B1B041A437B68DB6A1B061B49B0
:1014740013434B601B4B01221A60FFF75DFB38617D
:1014840008E0FFF759FB02463B69D31A022B01D946
:1014940003235CE0114B1B6803F00073002BF0D0B6
:1014A40054E0104B00221A60FFF746FB386108E055
:1014B400FFF742FB02463B69D31A022B01D90323EF
:1014C40045E0064B1B6803F00073002BF0D13DE0B0
:1014D4007B689B69012B07D1012338E00038024067
:1014E40000700040600047421B4B5B68FB607B68F8
:1014F4009B69012B28D0FB6803F480027B68DB69BD
:101504009A4221D1FB6803F03F027B681B6A9A422E
:101514001AD1FA6847F6C07313407A68526A920186
:10152400934211D1FB6803F440327B689B6A5B08E9
:10153400013B1B049A4207D1FB6803F070627B688D
:10154400DB6A1B069A4201D0012300E000231846FF
:101554001837BD4680BD00BF0038024080B584B056
:1015640000AF786039607B68002B01D10123CCE0A7
:10157400684B1B6803F007033A689A420CD9654B21
:101584003A68D2B21A70634B1B6803F007033A68D7
:101594009A4201D00123B8E07B681B6803F0020380
:1015A400002B20D07B681B6803F00403002B05D0BC
:1015B400594B9B68584A43F4E05393607B681B681B
:1015C40003F00803002B05D0534B9B68524A43F4A5
:1015D40060439360504B9B6823F0F0027B689B68E8
:1015E4004D4913438B607B681B6803F00103002B98
:1015F40044D07B685B68012B07D1474B1B6803F41D
:101604000033002B19D101237FE07B685B68022B38
:1016140003D07B685B68032B07D13F4B1B6803F047
:101624000073002B09D101236FE03B4B1B6803F0CF
:101634000203002B01D1012367E0374B9B6823F0A1
:1016440003027B685B68344913438B60FFF774FAC9
:10165400F8600AE0FFF770FA0246FB68D31A41F219
:101664008832934201D903234FE02B4B9B6803F04C
:101674000C027B685B689B009A42EBD1254B1B688C
:1016840003F007033A689A420CD2224B3A68D2B26A
:101694001A70204B1B6803F007033A689A4201D082
:1016A400012332E07B681B6803F00403002B08D09D
:1016B400194B9B6823F4E0527B68DB68164913439B
:1016C4008B607B681B6803F00803002B09D0124B66
:1016D4009B6823F460427B681B69DB000E4913435B
:1016E4008B6000F021F802460B4B9B681B0903F04A
:1016F4000F030A49CB5C22FA03F3094A1360094B2E
:101704001B681846FFF7D4F9002318461037BD4666
:1017140080BD00BF003C0240003802406828000839
:1017240000000020040000202DE9B04F94B000AF69
:1017340000237B640023FB6400233B640023BB641D
:10174400794B9B6803F00C03082B0DD0082B00F297
:10175400E180002B02D0042B03D0DBE0734BBB648D
:10176400DBE0734BBB64D8E06F4B5B6803F03F0373
:101774007B646D4B5B6803F48003002B63D06A4B7E
:101784005B689B090022BB63FA63BB6BC3F308036A
:101794003B6300237B63D7E90C4522462B464FF07D
:1017A40000004FF00001590141EAD26150010246A4
:1017B4000B462146511A3961294663EB01037B61CB
:1017C4004FF000024FF00003D7E904AB59468B01F8
:1017D400514643EA916351468A015146B2EB0108EE
:1017E400594663EB01094FF000024FF000034FEA42
:1017F400C90343EA58734FEAC80290469946234600
:1018040018EB0303BB602B4649EB0303FB604FF06B
:1018140000024FF00003D7E9024529464B02214656
:1018240043EAD15321464A02104619467B6C0022F2
:10183400BB62FA62D7E90A23FEF7CAFC02460B46EA
:101844001346FB6458E0384B5B689B09002218463A
:101854001146C0F308033B6200237B62D7E9088981
:1018640042464B464FF000004FF00001590141EA57
:10187400D261500102460B464146B2EB010A494689
:1018840063EB010B4FF000024FF000034FEA8B13A0
:1018940043EA9A634FEA8A12B2EB0A0463EB0B053C
:1018A4004FF000024FF00003EB0043EA5473E200F0
:1018B40014461D464346E3183B604B4645EB030381
:1018C4007B604FF000024FF00003D7E90045294642
:1018D4008B02214643EA915321468A021046194657
:1018E4007B6C0022BB61FA61D7E90623FEF770FC2A
:1018F40002460B461346FB640B4B5B681B0C03F060
:10190400030301335B003B64FA6C3B6CB2FBF3F3FF
:10191400BB6402E0054BBB6400BFBB6C1846503788
:10192400BD46BDE8B08F00BF003802400024F4007B
:1019340000127A0080B400AF034B1B681846BD4602
:101944005DF8047B704700BF0000002080B500AF45
:10195400FFF7F0FF0246054B9B689B0A03F0070361
:101964000349CB5C22FA03F3184680BD00380240D9
:101974007828000880B500AFFFF7DCFF0246054B6E
:101984009B685B0B03F007030349CB5C22FA03F368
:10199400184680BD003802407828000880B582B01F
:1019A40000AF78607B68002B01D1012341E07B68A4
:1019B40093F83D30DBB2002B06D17B68002283F81C
:1019C4003C207868FEF746FF7B68022283F83D20BE
:1019D4007B681A687B6804331946104600F0A0F946
:1019E4007B68012283F846207B68012283F83E202D
:1019F4007B68012283F83F207B68012283F8402022
:101A04007B68012283F841207B68012283F842200D
:101A14007B68012283F843207B68012283F84420F9
:101A24007B68012283F845207B68012283F83D20EE
:101A3400002318460837BD4680BD000080B584B039
:101A440000AF786039603B68002B09D17B6893F85C
:101A54003E30DBB2012B14BF01230023DBB222E0B2
:101A64003B68042B09D17B6893F83F30DBB2012B30
:101A740014BF01230023DBB215E03B68082B09D116
:101A84007B6893F84030DBB2012B14BF01230023A1
:101A9400DBB208E07B6893F84130DBB2012B14BF62
:101AA40001230023DBB2002B01D0012368E03B6853
:101AB400002B04D17B68022283F83E2013E03B68AC
:101AC400042B04D17B68022283F83F200BE03B689F
:101AD400082B04D17B68022283F8402003E07B6852
:101AE400022283F841207B681B680122396818466A
:101AF40000F028FB7B681B68234A934207D17B686C
:101B04001B685A6C7B681B6842F400425A647B6809
:101B14001B681D4A934218D07B681B68B3F1804F41
:101B240013D07B681B68194A93420ED07B681B68EC
:101B3400174A934209D07B681B68164A934204D023
:101B44007B681B68144A934211D17B681B689B68AD
:101B540003F00703FB60FB68062B10D07B681B684F
:101B64001A687B681B6842F001021A6007E07B6810
:101B74001B681A687B681B6842F001021A60002324
:101B840018461037BD4680BD0000014000040040E7
:101B940000080040000C00400040014080B586B0C1
:101BA40000AFF860B9607A600023FB75FB6893F8B6
:101BB4003C30012B01D10223AEE0FB68012283F803
:101BC4003C207B680C2B00F29F8001A252F823F08A
:101BD400091C00080D1D00080D1D00080D1D00083E
:101BE400491C00080D1D00080D1D00080D1D0008EE
:101BF4008B1C00080D1D00080D1D00080D1D00089C
:101C0400CB1C0008FB681B68B968184600F00EF985
:101C1400FB681B689A69FB681B6842F008029A61BA
:101C2400FB681B689A69FB681B6822F004029A61CE
:101C3400FB681B689969BB681A69FB681B680A43DF
:101C44009A6164E0FB681B68B968184600F054F9AF
:101C5400FB681B689A69FB681B6842F400629A611E
:101C6400FB681B689A69FB681B6822F480629A61AE
:101C7400FB681B689969BB681B691A02FB681B68CF
:101C84000A439A6143E0FB681B68B968184600F090
:101C94009FF9FB681B68DA69FB681B6842F008025D
:101CA400DA61FB681B68DA69FB681B6822F00402CE
:101CB400DA61FB681B68D969BB681A69FB681B6831
:101CC4000A43DA6123E0FB681B68B968184600F030
:101CD400E9F9FB681B68DA69FB681B6842F4006277
:101CE400DA61FB681B68DA69FB681B6822F48062AE
:101CF400DA61FB681B68D969BB681B691A02FB6857
:101D04001B680A43DA6102E00123FB7500BFFB682C
:101D1400002283F83C20FB7D18461837BD4680BD61
:101D240080B485B000AF786039607B681B68FB6065
:101D34007B68374A93420FD07B68B3F1804F0BD056
:101D44007B68344A934207D07B68334A934203D07A
:101D54007B68324A934208D1FB6823F07003FB602E
:101D64003B685B68FA681343FB607B68284A9342CC
:101D74001BD07B68B3F1804F17D07B68254A934210
:101D840013D07B68244A93420FD07B68234A934242
:101D94000BD07B68224A934207D07B68214A934246
:101DA40003D07B68204A934208D1FB6823F4407334
:101DB400FB603B68DB68FA681343FB60FB6823F055
:101DC40080023B685B691343FB603B689A687B68ED
:101DD400DA623B681A687B689A627B680C4A9342B1
:101DE40003D13B681A697B681A637B681B6843F0FC
:101DF40004027B681A607B6801225A617B68FA6876
:101E04001A6000BF1437BD465DF8047B704700BFFD
:101E1400000001400004004000080040000C0040A5
:101E240000400140004401400048014080B487B0B4
:101E340000AF786039607B681B6A7B617B681B6AD2
:101E440023F001027B681A627B685B683B617B68F4
:101E54009B69FB60FB6823F07003FB60FB6823F065
:101E64000303FB603B681B68FA681343FB607B69F0
:101E740023F002037B613B689B687A6913437B61AF
:101E84007B681C4A93420CD17B6923F008037B6175
:101E94003B68DB687A6913437B617B6923F0040345
:101EA4007B617B68134A934211D13B6923F48073AD
:101EB4003B613B6923F400733B613B685B693A69AE
:101EC40013433B613B689B693A6913433B617B68FD
:101ED4003A695A607B68FA689A613B685A687B6819
:101EE4005A637B687A691A6200BF1C37BD465DF885
:101EF400047B70470000014080B487B000AF786075
:101F040039607B681B6A7B617B681B6A23F0100263
:101F14007B681A627B685B683B617B689B69FB60DA
:101F2400FB6823F4E043FB60FB6823F44073FB602D
:101F34003B681B681B02FA681343FB607B6923F050
:101F440020037B613B689B681B017A6913437B61B7
:101F54007B681E4A93420DD17B6923F080037B6129
:101F64003B68DB681B017A6913437B617B6923F05F
:101F740040037B617B68154A934213D13B6923F488
:101F840080633B613B6923F400633B613B685B69AD
:101F94009B003A6913433B613B689B699B003A6928
:101FA40013433B617B683A695A607B68FA689A61BB
:101FB4003B685A687B689A637B687A691A6200BFD7
:101FC4001C37BD465DF8047B704700BF000001402C
:101FD40080B487B000AF786039607B681B6A7B612E
:101FE4007B681B6A23F480727B681A627B685B6877
:101FF4003B617B68DB69FB60FB6823F07003FB607B
:10200400FB6823F00303FB603B681B68FA68134317
:10201400FB607B6923F400737B613B689B681B0254
:102024007A6913437B617B681D4A93420DD17B69B6
:1020340023F400637B613B68DB681B027A6913430A
:102044007B617B6923F480637B617B68144A9342E0
:1020540013D13B6923F480533B613B6923F4005360
:102064003B613B685B691B013A6913433B613B6815
:102074009B691B013A6913433B617B683A695A6067
:102084007B68FA68DA613B685A687B68DA637B6864
:102094007A691A6200BF1C37BD465DF8047B70473D
:1020A4000000014080B487B000AF786039607B687D
:1020B4001B6A3B617B681B6A23F480527B681A624B
:1020C4007B685B687B617B68DB69FB60FB6823F48E
:1020D400E043FB60FB6823F44073FB603B681B68D0
:1020E4001B02FA681343FB603B6923F400533B6112
:1020F4003B689B681B033A6913433B617B68104A46
:10210400934209D17B6923F480437B613B685B691B
:102114009B017A6913437B617B687A695A607B68A7
:10212400FA68DA613B685A687B681A647B683A69C2
:102134001A6200BF1C37BD465DF8047B704700BFC0
:102144000000014080B487B000AFF860B9607A60E5
:10215400BB6803F01F03012202FA03F37B61FB68EF
:102164001A6A7B69DB431A40FB681A62FB681A6AC5
:10217400BB6803F01F03796801FA03F31A43FB6891
:102184001A6200BF1C37BD465DF8047B704700002F
:1021940080B485B000AF786039607B6893F83C30D8
:1021A400012B01D1022350E07B68012283F83C20FB
:1021B4007B68022283F83D207B681B685B68FB60B8
:1021C4007B681B689B68BB60FB6823F07003FB6043
:1021D4003B681B68FA681343FB607B681B68FA68FA
:1021E4005A607B681B681C4A934218D07B681B6842
:1021F400B3F1804F13D07B681B68184A93420ED00A
:102204007B681B68164A934209D07B681B68154A91
:10221400934204D07B681B68134A93420CD1BB6879
:1022240023F08003BB603B685B68BA681343BB6000
:102234007B681B68BA689A607B68012283F83D203A
:102244007B68002283F83C20002318461437BD46DF
:102254005DF8047B704700BF0000014000040040AB
:1022640000080040000C00400040014080B582B0EE
:1022740000AF78607B68002B01D1012342E07B68CA
:1022840093F84130DBB2002B06D17B68002283F83F
:1022940040207868FEF736FB7B68242283F84120CF
:1022A4007B681B68DA687B681B6822F40052DA607A
:1022B400786800F02BF87B681B681A697B681B68D8
:1022C40022F490421A617B681B685A697B681B6818
:1022D40022F02A025A617B681B68DA687B681B68F3
:1022E40042F40052DA607B6800225A647B68202240
:1022F40083F841207B68202283F842207B680022F7
:102304005A63002318460837BD4680BD2DE9B04FF7
:10231400C0B000AFC7F8F400D7F8F4301B681B69ED
:1023240023F44050D7F8F430D968D7F8F4301A6859
:1023340040EA01031361D7F8F4309A68D7F8F4300F
:102344001B691A43D7F8F4305B691A43D7F8F430A1
:10235400DB691343C7F8F830D7F8F4301B68DB683F
:1023640023F4164121F00C01D7F8F4301A68D7F899
:10237400F8300B43D360D7F8F4301B685B6923F45F
:102384004070D7F8F4309969D7F8F4301A6840EA05
:1023940001035361D7F8F4301A688F4B9A4205D081
:1023A400D7F8F4301A688D4B9A4204D1FFF7E2FA59
:1023B400C7F8FC0003E0FFF7C9FAC7F8FC00D7F838
:1023C400F430DB69B3F5004F40F00C81D7F8FC30F2
:1023D4000022C7F8E830C7F8EC20D7E93A4522468E
:1023E4002B469118B9655B41FB65D7E91623214655
:1023F40012EB0108294643EB01094FF000024FF0AC
:1024040000034FEAC90343EA58734FEAC8029046EF
:102414009946234618EB0303C7F8E0302B4649EBF3
:102424000303C7F8E430D7F8F4305B680022C7F838
:10243400D830C7F8DC20D7E936120B46DB183B65E9
:10244400134642EB03037B65D7E91423D7E938012C
:10245400FDF7BEFE02460B46614BA3FB02235B095C
:102464001C01D7F8FC300022C7F8D030C7F8D420BC
:10247400D7E9348942464B469118B9645B41FB6401
:10248400D7E91223414612EB010A494643EB010BFB
:102494004FF000024FF000034FEACB0343EA5A73B4
:1024A4004FEACA0292469B4643461AEB0303C7F817
:1024B400C8304B464BEB0303C7F8CC30D7F8F430A5
:1024C4005B680022C7F8C030C7F8C420D7E93012CF
:1024D4000B46DB183B64134642EB03037B64D7E9EA
:1024E4001023D7E93201FDF773FE02460B4611466D
:1024F4003B4BA3FB01235B09642202FB03F3CB1ACE
:10250400DB0003F13202364BA3FB02235B095B00C1
:1025140003F4F8731C44D7F8FC300022C7F8B83031
:10252400C7F8BC20D7E92E8942464B469118B963B7
:102534005B41FB63D7E90E23414651183963494691
:102544004B417B634FF000024FF00003D7E90CAB23
:102554005946CB00514643EA51735146CA001046CE
:102564001946034642469B18C7F8B0304B460A4604
:1025740042EB0303C7F8B430D7F8F4305B680022A9
:10258400C7F8A830C7F8AC20D7E92A120B46DB18E5
:10259400BB62134642EB0303FB62D7E90A23D7E984
:1025A4002C01FDF715FE02460B460D4BA3FB02134F
:1025B4005B09642101FB03F3D31ADB003233084ABD
:1025C400A2FB03235B0903F00702D7F8F4301B686E
:1025D40022449A6006E100BF00100140001401404B
:1025E4001F85EB51D7F8FC300022C7F8A030C7F89C
:1025F400A420D7E9288942464B46911839625B41A9
:102604007B62D7E9082341465418494643EB010548
:102614004FF000024FF00003EB0043EA5473E20072
:1026240014461D464346E318C7F898304B4645EB1D
:102634000303C7F89C30D7F8F4305B680022C7F86E
:102644009030C7F894204FF000024FF00003D7E910
:10265400244529468B00214643EA917321468A008A
:10266400D7E92601FDF7B4FD02460B46604BA3FBF8
:1026740002235B091C01D7F8FC300022C7F888301C
:10268400C7F88C20D7E9228942464B469118B96194
:102694005B41FB61D7E9062341465118396149463C
:1026A4004B417B614FF000024FF00003D7E904ABCC
:1026B4005946CB00514643EA51735146CA0010466D
:1026C4001946034642469B18C7F880304B460A46D3
:1026D40042EB0303C7F88430D7F8F4305B68002278
:1026E400BB67FA674FF000024FF00003D7E91E8979
:1026F40049468B00414643EA917341468A00D7E933
:102704002001FDF765FD02460B461146384BA3FB3D
:1027140001235B09642202FB03F3CB1A1B0132334E
:10272400334AA2FB03235B0903F0F0031C44D7F8EC
:10273400FC3000223B677A67D7E91C8942464B4646
:102744009118B9605B41FB60D7E9022341465118F7
:10275400396049464B417B604FF000024FF0000363
:10276400D7E900AB5946CB00514643EA5173514671
:10277400CA0010461946034642469B18BB664B46A0
:102784000A4642EB0303FB66D7F8F4305B68002289
:102794003B667A664FF000024FF00003D7E91889D0
:1027A40049468B00414643EA917341468A00D7E982
:1027B4001A01FDF70DFD02460B460D4BA3FB021358
:1027C4005B09642101FB03F3D31A1B013233084A6A
:1027D400A2FB03235B0903F00F02D7F8F4301B6854
:1027E40022449A6000BF07F58077BD46BDE8B08FEC
:1027F4001F85EB5102440346934200D1704703F80E
:10280400011BF9E770B50D4D0D4C641BA410002697
:10281400A64209D10B4D0C4C00F018F8641BA4100F
:102824000026A64205D170BD55F8043B98470136F1
:10283400EEE755F8043B98470136F2E7882800088C
:1028440088280008882800088C280008F8B500BFEC
:10285400F8BC08BC9E467047F8B500BFF8BC08BC7D
:042864009E467047D5
:102868000000000000000000010203040607080938
:0828780000000000010203044E
:0828800084D9FF7F0100000074
:04288800B90100088A
:04288C0095010008AA
:0C2890000024F400100000000100000013
:0400000508000A1DC8
:00000001FF
