:0300000002088073
:0C088000787FE4F6D8FD758107020800BF
:070859007E00120860C2904E
:10086000E4FDFCC3ED9FEC9E5015E4FBFA0BBB00CE
:0F087000010ABA04F8BBFBF50DBD00010C80E4D2
:01087F002256
:10080000C290C291C29220A00DD2907FF47E0112BC
:100810000860C290803620A113D2907FFA12085946
:10082000D2917FF40E120860C291802020A222D2C1
:10083000907F7D120859D2917FFA120860C29112FE
:100840000860D2927FF40E120860C2921208608093
:09085000B5C290C291C29280ADC4
:00000001FF
