:020000040000FA
:0600000024EF01F01200E4
:0A0006000100660200008000000007
:0400100024000000C8
:0C0014004DD80001AE6BAF6B0A0EAFAF11
:1000200002D0D89003D0AE5D000EAF591DE2AEC035
:10003000E9FFAFC0EAFFD890E936EA36800EE9263C
:10004000000EEA22EF50E66E94C0E6FF1DD8E5529E
:10005000E552640EE66EE66A54D8E552E5520001B8
:10006000AE2B000EAF23DAD7D6D71200D9CFE6FFDA
:10007000E1CFD9FFFE0EDB50C96E9EA6FED79E963D
:10008000E552E7CFD9FF1200D9CFE6FFE1CFD9FF84
:10009000809AFE0EDBCFE6FFE9DFE552FD0EDBCFF7
:1000A000E6FFE4DFE552808AE552E7CFD9FF120090
:1000B000929A949A9496C00EC76E200EC66E070E42
:1000C000E66E0B0EE66EE0DFE552E552E66A090EDB
:1000D000E66EDADFE552E5520F0EE66E0A0EE66EC8
:1000E000D3DFE552E552010EE66E0C0EE66ECCDF74
:1000F000E552E552E66A0F0EE66EC6DFE552E552BE
:100100001200D9CFE6FFE1CFD9FF040EE126DE6A67
:10011000DD6ADECF00F0DDCF01F0D890015004E6BB
:10012000E80E005C030E015826E2020EDB6A030EA5
:10013000DB6A020EDBCF00F0030EDBCF01F0FD0E19
:10014000DBCF02F0FE0EDBCF03F001500318E8AE68
:1001500002D0033404D00250005C0350015806E280
:10016000020EDB2A030E01E3DB2AE3D7DF2A010EAE
:1001700001E3DB2ACED7040EE15C02E2E16AE5523C
:0A018000E16EE552E7CFD9FF12004F
:06018A00060EF66E000EE9
:10019000F76E000EF86E00010900F550A96F090016
:1001A000F550AA6F03E1A96701D03DD00900F550D1
:1001B000A46F0900F550A56F0900F550A66F09005E
:1001C0000900F550E96E0900F550EA6E09000900D2
:1001D0000900F550A76F0900F550A86F0900090044
:1001E000F6CFABF0F7CFACF0F8CFADF0A4C0F6FF90
:1001F000A5C0F7FFA6C0F8FF0001A75302E1A8536E
:1002000007E00900F550EE6EA707F8E2A807F9D756
:10021000ABC0F6FFACC0F7FFADC0F8FF0001A90707
:08022000000EAA5BBFD712001B
:08022800000EF36E00EE00F081
:10023000060E01D81200EA6002D0EE6AFCD7F35035
:08024000E9601200EE6AFCD730
:0802480015EE00F025EE00F0B8
:10025000F86A059CC5EC00F032EC01F00AEC00F005
:04026000FBD71200B6
:02026400120086
:0A0266003F0006005B004F00660039
:100270006D007D0007007F006F0001000200030099
:0A0280000400050006000700080056
:00000001FF
