:030000000208B73C
:0C08B700787FE4F6D8FD75810A02088FF6
:10087F00454D4245444445442053595354454D003A
:08080000C2B1D2B27F017E00FB
:10080800E4FDFCC3ED9FEC9E5015E4FBFA0BBB0026
:0F081800010ABA04F8BBFBF50DBD00010C80E42A
:0108270022AE
:0D089D008FA0C2B0120800C2B20F020808FE
:0D08AA008FA0D2B0120800C2B20F020808E1
:10084D007F3812089D7F0C12089D7F0112089D7F35
:09085D000612089D7F8002089D2F
:100828008B088A09890AAB08AA09A90A120866600E
:1008380013050AE50A7002050914F9120866FF1281
:0508480008AA80E22275
:0E088F0012084D7BFF7A08797F12082880FE40
:10086600BB010689828A83E0225002E722BBFE0290
:09087600E32289828A83E49322C3
:00000001FF
